:107000005FC0000078C0000076C0000074C00000BF
:1070100072C0000070C000006EC000006CC00000B4
:107020006AC0000068C00000DEC4000064C0000048
:1070300062C0000060C000005EC000005CC00000D4
:107040005AC00000EAC0000056C0000054C0000052
:1070500052C0000050C000004EC000004CC00000F4
:107060004AC0000048C0000046C0000044C0000004
:1070700042C0000040C000003EC000003CC0000014
:107080003AC0000038C0000036C0000034C0000024
:1070900032C0000030C000002EC000002CC0000034
:1070A0002AC0000028C0000026C000005E3E773ED7
:1070B0001B3F773E1B3FAC3ECE3E1B3FEE3E003FAC
:1070C00011241FBECFEFDAE0DEBFCDBF11E0A0E09C
:1070D000B1E0E0ECFEE702C005900D92A43AB107E2
:1070E000D9F721E0A4EAB1E001C01D92AA3BB207A2
:1070F000E1F764D3E3C684CF84E08093E900809114
:10710000E80085FD0EC08091E8008B778093E80051
:107110008091E80082FDF3CF8EB38111F9CF80E03A
:1071200008958091F100089593E09093E900909183
:10713000E80095FF0AC08093F1005D9884E690E036
:107140009093A9018093A80108959091E8009E77FB
:107150009093E8009091E80090FDEDCF9EB39111DF
:10716000F9CF0895F89410926F0010928100109258
:1071700085001092840081E085BF15BE47985D9A16
:10718000289A0C94000008958091AE019091AF016F
:1071900001969093AF018093AE01292F97FF02C013
:1071A0002EEF291B220F281710F447980895479AAD
:1071B000089584B7877F84BF88E10FB6F8948093E1
:1071C0006000109260000FBE90E080E80FB6F89467
:1071D00080936100909361000FBE81E085BF82E0E3
:1071E00085BF3F9A209A559AE1E6F0E090E89083B7
:1071F000108247985D9A289A109289009AEF90938E
:10720000880080936F0083E0809381008FE39CE986
:107210000197F1F700C00000CEC31F920F920FB686
:107220000F9211242F938F939F93EF93FF931092BC
:107230008500109284008091A8019091A901009787
:1072400041F001979093A9018093A801892B09F43B
:107250005D9A8091A6019091A701009741F0019756
:107260009093A7018093A601892B09F4289AE0E066
:10727000F0E085919491019649F08091A40190915C
:10728000A50101969093A5018093A401FF91EF9130
:107290009F918F912F910F900FBE0F901F90189577
:1072A00042E061EC82E01AD342E161E883E016D368
:1072B00042E160E884E012C38091B201982F9F7789
:1072C000913239F59091B301903291F0913209F5F4
:1072D000813AF9F48091E800877F8093E80067E0C5
:1072E00070E083E091E030D48091E8008B770FC0AC
:1072F000813279F48091E800877F8093E80067E02D
:1073000070E083E091E079D48091E8008E778093FB
:10731000E80008954F925F926F927F928F929F92B2
:10732000AF92BF92CF92DF92EF92FF92CF93DF9313
:1073300084E08093E9008091E80082FF30C22898C1
:1073400084E690E09093A7018093A601D5DED82F24
:10735000853481F48CE49DE19093A5018093A40190
:1073600007B600FCFDCFF999FECF81E1809357006D
:10737000E89503C0843521F4BFDE8DE0D5DEE6C19B
:107380008C34D9F38035C9F3843721F484E4CCDE1E
:1073900080E0F4CF813611F489E5F0CF813491F4A7
:1073A000ABDEC82FA9DE90E0880F991F2C2F30E0AC
:1073B000322F2227330F822B932BAA2797FDA095DC
:1073C000BA2F98C1803711F483E5D8CF833549F4BB
:1073D000CAE9D1E08991A8DE21E0C13AD207D1F70C
:1073E000B5C1863521F481E39FDE80E3C7CF8337C3
:1073F00031F487E899DE85E997DE8EE1BFCF8536E7
:10740000B9F4E0E0F0E083E095E080935700E89580
:1074100007B600FCFDCF90935700E89507B600FC37
:10742000FDCFE058FF4FE11520E7F20771F7A5CF38
:10743000823719F4E1E0F0E00EC0863419F4E0E0A0
:10744000F0E009C08E3419F4E3E0F0E004C08135C7
:1074500039F4E2E0F0E089E08093570084918ECF28
:10746000823631F489E560DE80E05EDE80E886CF3A
:10747000823419F0873609F0D5C01092A501109218
:10748000A4013ADED82E38DEE82E36DEC82F8BEB8C
:107490008C0F823010F08FE371CFF12CFD28109209
:1074A0006F00D73609F045C081E180935700E89519
:1074B0005701912CD1E0A114B10409F4AFC0C090E0
:1074C000AA01D090AB01E090AC01F090AD01C634C0
:1074D000B9F4E92DF0E0EC29FD29849125DE99200D
:1074E00069F082E0C80ED11CE11CF11CC092AA0117
:1074F000D092AB01E092AC01F092AD019D2615C097
:10750000D701C601B695A79597958795C1D40CDE8E
:10751000E2E0CE0ED11CE11CF11CC092AA01D09277
:10752000AB01E092AC01F092AD01F1E0AF1AB1080D
:10753000C2CF8090AA019090AB01A090AC01B09016
:10754000AD01C63421F0C12CD12CD1E030C083E094
:10755000F40180935700E89507B600FCFDCFF3CF08
:10756000C63461F5DD2039F14090AA015090AB019D
:107570006090AC017090AD01BFDD2C2D30E0382B58
:10758000F2010901D0935700E8951124F2E04F0E63
:10759000511C611C711C4092AA015092AB01609277
:1075A000AC017092AD01DD2621E0E21AF108E11490
:1075B000F104B1F627C0A0DDC82EF5CF9DDD682F00
:1075C0008091AA019091AB01A091AC01B091AD0165
:1075D000B695A7959795879563D44091AA01509148
:1075E000AB016091AC017091AD014E5F5F4F6F4F89
:1075F0007F4F4093AA015093AB016093AC0170930D
:10760000AD01D2CFC63441F485E0F4018093570038
:10761000E89507B600FCFDCF8DE086DD82E0809323
:107620006F0094C0833471F4C091AA01D091AB0172
:1076300063DD90E021E0FE010C0120935700E89506
:1076400011249BCE833601F5C090AA01D090AB01E6
:10765000E090AC01F090AD014FDDF601E16090E00B
:1076600021E00C0120935700E8951124F2E0CF0EA1
:10767000D11CE11CF11CC092AA01D092AB01E09296
:10768000AC01F092AD0179CE8D3661F4E091AA01A2
:10769000F091AB0185E080935700E89507B600FCB8
:1076A000FDCF6BCE823551F4E091AA01F091AB0190
:1076B000C591D4918D2F38DD8C2F60CE843419F58F
:1076C0001BDD682F8091AA019091AB01A091AC01C4
:1076D000B091AD01B695A79597958795E1D3809127
:1076E000AA019091AB01A091AC01B091AD010296BD
:1076F000A11DB11D8093AA019093AB01A093AC0191
:10770000B093AD013ACE8436F1F4C090AA01D09086
:10771000AB01E090AC01F090AD01D701C601B69588
:10772000A79597958795B4D3FFDC22E0C20ED11CB4
:10773000E11CF11CC092AA01D092AB01E092AC0115
:10774000F092AD0103C08B3109F0A5CE83E08093A8
:10775000E9009091E8008091E8008E778093E8003E
:1077600095FD11C08091E80080FD04C08EB38111A9
:10777000F9CF15C08091E8008E778093E80003C0B0
:107780008EB3882361F08091E80080FFF9CF84E018
:107790008093E9008091E8008B778093E800DF9187
:1077A000CF91FF90EF90DF90CF90BF90AF909F90E0
:1077B0008F907F906F905F904F9008958091000818
:1077C00090910108109201081092000844B714BE6D
:1077D00028E10FB6F89420936000109260000FBE6D
:1077E00041FD1AC040FF09C0E0E0F0E0259134916E
:1077F0002F3F3F4F11F0B6DC0FC043FF0DC020916B
:107800000001309101018217930731F0E0E0F0E0D0
:1078100085919491019679F75FEF84E39CE0515054
:1078200080409040E1F700C00000C3DC78941092E3
:10783000A5011092A40180910201882369F06ADDFC
:1078400010D38091A4019091A50181349F4110F043
:107850001092020199DCEFCF8091E000816080936B
:10786000E0008FE39CE90197F1F700C000007ADCAB
:1078700080E090E00895292F30E02230310539F082
:107880002330310549F02130310561F410C08EE319
:1078900090E02AE431E01EC0882371F0813089F045
:1078A0008230A1F080E090E020E030E013C082E17F
:1078B00090E028E831E00EC084E090E026E431E07A
:1078C00009C082E290E024E231E004C088E190E067
:1078D0002AE031E0FA013183208308958093E900A2
:1078E000EBEEF0E0808181608083EDEEF0E01082CD
:1078F0006093EC0040838091EE00881F8827881FEA
:1079000008958091B20187FD05C08091E80080FF55
:107910000DC010C08091E80082FD04C08EB38111BB
:10792000F9CF08958091E8008B7707C08EB381115D
:10793000ECCF08958091E8008E778093E800089559
:107940000F931F93CF93DF9341D048D0C8EDD0E081
:1079500088818F77888388818068888388818F7DFC
:10796000888319BC1EBA1092B00100EE10E0F80135
:1079700080818B7F808388818160888342E060E0A2
:1079800080E0ACDFE1EEF0E080818E7F8083E2EE8C
:10799000F0E0808181608083808188608083F8014D
:1079A00080818E7F8083888180618883DF91CF9101
:1079B0001F910F910895E7EDF0E080818160808351
:1079C0008AE482BF81E08093B101BACFE8EDF0E0B4
:1079D00080818E7F80831092E20008951092DA00F9
:1079E0001092E10008951F920F920FB60F9211248A
:1079F0002F933F934F935F936F937F938F939F93B7
:107A0000AF93BF93EF93FF938091DA0080FF1BC089
:107A10008091D80080FF17C08091DA008E7F80931C
:107A2000DA008091D90080FF0BC080E189BD82E13E
:107A300089BD09B400FEFDCF81E08EBB11D203C029
:107A400019BC1EBA0DD28091E10080FF17C0809151
:107A5000E20080FF13C08091E2008E7F8093E200FD
:107A60008091E20080618093E2008091D800806282
:107A70008093D80019BC85E08EBBF2D18091E100E3
:107A800084FF2CC08091E20084FF28C080E189BD82
:107A900082E189BD09B400FEFDCF8091D8008F7DC1
:107AA0008093D8008091E1008F7E8093E1008091E7
:107AB000E2008F7E8093E2008091E20081608093FB
:107AC000E2008091B001811104C08091E30087FF42
:107AD00002C084E001C081E08EBBC2D18091E10090
:107AE00083FF21C08091E20083FF1DC08091E100EF
:107AF000877F8093E10082E08EBB1092B00180917D
:107B0000E1008E7F8093E1008091E2008E7F809380
:107B1000E2008091E20080618093E20042E060E058
:107B200080E0DCDE9DD1FF91EF91BF91AF919F91FD
:107B30008F917F916F915F914F913F912F910F9016
:107B40000FBE0F901F9018952091B8013091B90188
:107B50002617370748F06115710539F42091E800C0
:107B60002E772093E80001C0B901FC0120E06115E7
:107B70007105A1F18EB38823E1F18530E1F18091A7
:107B8000E80083FD34C08091E80082FF06C0809148
:107B9000E80082FF26C080E008958091E80080FF21
:107BA000E6CF2091F3008091F20090E0922B6115D6
:107BB000710551F08830910538F421912093F1003E
:107BC000615071090196F3CF21E0089709F020E098
:107BD0008091E8008E778093E800C9CF2111CACF49
:107BE000D6CF8EB3882329F0853089F604C081E092
:107BF000089582E0089583E008956115710529F4E0
:107C00002091E8002B772093E8006115710531F190
:107C10002EB3222361F1253061F12091E80023FD8C
:107C200022C02091E80022FFF3CFFC01CF01409158
:107C3000F3002091F20030E0342B232B09F38091E4
:107C4000F1008193CF01615071096115710571F7E0
:107C5000D7CF8EB3882359F0853059F08091E80052
:107C600080FFF7CF02C081E0089580E0089582E0B0
:107C7000089583E008950F931F93CF93DF9300D06F
:107C8000CDB7DEB7E2EBF1E08091F100819381E0C6
:107C9000EA3BF807C9F710DB8091E80083FFCBC00F
:107CA0002091B2013091B301832F90E08A30910589
:107CB00008F0C1C0FC01EA5AF74CE4C0223809F0D0
:107CC000BAC08091B60187708093E9009091EB0073
:107CD0001092E9008091E800877F8093E80095FB8F
:107CE000882780F98093F1001092F10082C0822FE2
:107CF0008D7F09F0A0C0223009F09DC08091B401B1
:107D0000811124C02091B601277009F494C02093FA
:107D1000E9008091EB0080FF19C08091EB003330C7
:107D200011F4806211C080618093EB0081E090E0EB
:107D3000022E01C0880F0A94EAF78093EA0010929D
:107D4000EA008091EB0088608093EB001092E900DC
:107D50008091E800877F50C021116DC01091B4015F
:107D60001F770FB7F8948091E800877F8093E80031
:107D7000C8DD8091E80080FFFCCF8091E30080782F
:107D8000812B8093E30080688093E300112311F03E
:107D900083E001C082E08EBB0FBF4DC0205822306F
:107DA00008F049C0AE014F5F5F4F6091B60180910E
:107DB000B4019091B5015FDD009709F43CC02091BA
:107DC000E800277F2093E800BC0189819A81BCDE0E
:107DD0008091E8008B778093E8002DC0203859F51A
:107DE0008091E800877F8093E8008091B0018093C4
:107DF000F1008091E8008E778093E80082DD1BC05F
:107E0000211119C09091B4019230A8F48091E8003A
:107E1000877F8093E8009093B00173DD8091B0017B
:107E2000811104C08091E30087FF02C084E001C09B
:107E300081E08EBB35DA8091E80083FF0AC0809133
:107E4000EB0080628093EB008091E800877F809355
:107E5000E8000F900F90DF91CF911F910F9108953F
:107E60000895CF938EB3882359F0C091E900C7706D
:107E70001092E9008091E80083FDFDDEC093E900E7
:107E8000CF910895EE0FFF1F0590F491E02D099416
:107E9000F999FECF92BD81BDF89A992780B50895D2
:107EA000262FF999FECF1FBA92BD81BD20BD0FB616
:107EB000F894FA9AF99A0FBE01960895F894FFCFB4
:107EC00077770100000000000008180346007200E8
:107ED00065006500740072006F006E006900630049
:107EE0007300000022034C0065006F005300740013
:107EF000690063006B0020004C006F0061006400AB
:107F00006500720000000403090409023E0002013A
:107F10000080320904000001020201000524001063
:107F20000104240204052406000107058203080059
:107F3000FF09040100020A00000007050402100006
:107F40000107058302100001120110010200000860
:107F5000BA26020000020201000143415445524981
:047F60004E4100008E
:040000030000700089
:00000001FF
